:100000000C942A000C9434000C9434000C943400AA
:100010000C9434000C9434000C9434000C94340090
:100020000C9434000C9434000C9434000C94340080
:100030000C9434000C9434000C9434000C94340070
:100040000C9434000C9434000C9434000C94340060
:100050000C94340011241FBECFE5D8E0DEBFCDBF25
:100060000E9436000C946A000C9400008FEF8ABB4B
:1000700020E0A0E4B0E048EC50E061E070E010C0A7
:10008000CB01022E02C0880F991F0A94E2F78BBBA6
:1000900088EE93E0FA013197F1F70197D9F72F5FD6
:1000A000283071F720E030E0CD01022E02C0959596
:1000B00087950A94E2F78BBB88EE93E0FA013197BB
:1000C000F1F70197D9F72F5F3F4F2630310561F7E0
:0800D00020E0D6CFF894FFCF29
:00000001FF
